{
  "contractName": "BdbAdapter",
  "abi": [
    {
      "constant": true,
      "inputs": [],
      "name": "apiAssetClose",
      "outputs": [
        {
          "name": "",
          "type": "string"
        }
      ],
      "payable": false,
      "stateMutability": "view",
      "type": "function"
    },
    {
      "constant": true,
      "inputs": [],
      "name": "apiAssetEndpoint",
      "outputs": [
        {
          "name": "",
          "type": "string"
        }
      ],
      "payable": false,
      "stateMutability": "view",
      "type": "function"
    },
    {
      "constant": true,
      "inputs": [],
      "name": "apiStart",
      "outputs": [
        {
          "name": "",
          "type": "string"
        }
      ],
      "payable": false,
      "stateMutability": "view",
      "type": "function"
    },
    {
      "constant": true,
      "inputs": [],
      "name": "apiOutputsEndpoint",
      "outputs": [
        {
          "name": "",
          "type": "string"
        }
      ],
      "payable": false,
      "stateMutability": "view",
      "type": "function"
    },
    {
      "constant": true,
      "inputs": [],
      "name": "apiUrl",
      "outputs": [
        {
          "name": "",
          "type": "string"
        }
      ],
      "payable": false,
      "stateMutability": "view",
      "type": "function"
    },
    {
      "constant": true,
      "inputs": [],
      "name": "apiOutputsClose",
      "outputs": [
        {
          "name": "",
          "type": "string"
        }
      ],
      "payable": false,
      "stateMutability": "view",
      "type": "function"
    },
    {
      "anonymous": false,
      "inputs": [
        {
          "indexed": false,
          "name": "assetQuery",
          "type": "string"
        }
      ],
      "name": "newAssetQuery",
      "type": "event"
    },
    {
      "anonymous": false,
      "inputs": [
        {
          "indexed": false,
          "name": "assetResult",
          "type": "string"
        }
      ],
      "name": "newAssetResult",
      "type": "event"
    },
    {
      "anonymous": false,
      "inputs": [
        {
          "indexed": false,
          "name": "outputQuery",
          "type": "string"
        }
      ],
      "name": "newOutputQuery",
      "type": "event"
    },
    {
      "anonymous": false,
      "inputs": [
        {
          "indexed": false,
          "name": "outputResult",
          "type": "string"
        }
      ],
      "name": "newOutputResult",
      "type": "event"
    },
    {
      "constant": false,
      "inputs": [
        {
          "name": "_bigchaindbOwner",
          "type": "string"
        },
        {
          "name": "_receiver",
          "type": "address"
        },
        {
          "name": "_amount",
          "type": "uint256"
        }
      ],
      "name": "sendPayment",
      "outputs": [],
      "payable": true,
      "stateMutability": "payable",
      "type": "function"
    },
    {
      "constant": false,
      "inputs": [
        {
          "name": "id",
          "type": "bytes32"
        },
        {
          "name": "result",
          "type": "string"
        }
      ],
      "name": "__callback",
      "outputs": [],
      "payable": false,
      "stateMutability": "nonpayable",
      "type": "function"
    },
    {
      "constant": false,
      "inputs": [
        {
          "name": "myid",
          "type": "bytes32"
        },
        {
          "name": "result",
          "type": "string"
        },
        {
          "name": "proof",
          "type": "bytes"
        }
      ],
      "name": "__callback",
      "outputs": [],
      "payable": false,
      "stateMutability": "nonpayable",
      "type": "function"
    }
  ],
  "bytecode": "0x60806040526040805190810160405280601b81526020017f68747470733a2f2f746573742e626967636861696e64622e636f6d0000000000815250600690805190602001906200005192919062000213565b506040805190810160405280600581526020017f6a736f6e28000000000000000000000000000000000000000000000000000000815250600790805190602001906200009f92919062000213565b50606060405190810160405280602781526020017f2f6170692f76312f6f7574707574733f7370656e743d66616c7365267075626c81526020017f69635f6b65793d00000000000000000000000000000000000000000000000000815250600890805190602001906200011492919062000213565b506040805190810160405280601281526020017f292e302e7472616e73616374696f6e5f69640000000000000000000000000000815250600990805190602001906200016292919062000213565b506040805190810160405280601581526020017f2f6170692f76312f7472616e73616374696f6e732f0000000000000000000000815250600a9080519060200190620001b092919062000213565b506040805190810160405280600c81526020017f292e61737365742e646174610000000000000000000000000000000000000000815250600b9080519060200190620001fe92919062000213565b503480156200020c57600080fd5b50620002c2565b828054600181600116156101000203166002900490600052602060002090601f016020900481019282601f106200025657805160ff191683800117855562000287565b8280016001018555821562000287579182015b828111156200028657825182559160200191906001019062000269565b5b5090506200029691906200029a565b5090565b620002bf91905b80821115620002bb576000816000905550600101620002a1565b5090565b90565b6127dc80620002d26000396000f300608060405260043610610099576000357c0100000000000000000000000000000000000000000000000000000000900463ffffffff16806327dc297e1461009e5780632f78076c1461011557806338bbfa50146101a55780633cca6852146102625780633d972f8e146102f25780637780f0c7146103825780638367e12014610412578063d2fc2ed9146104a2578063e084c68514610528575b600080fd5b3480156100aa57600080fd5b506101136004803603810190808035600019169060200190929190803590602001908201803590602001908080601f01602080910402602001604051908101604052809392919081815260200183838082843782019150505050505091929192905050506105b8565b005b34801561012157600080fd5b5061012a6108f1565b6040518080602001828103825283818151815260200191508051906020019080838360005b8381101561016a57808201518184015260208101905061014f565b50505050905090810190601f1680156101975780820380516001836020036101000a031916815260200191505b509250505060405180910390f35b3480156101b157600080fd5b506102606004803603810190808035600019169060200190929190803590602001908201803590602001908080601f0160208091040260200160405190810160405280939291908181526020018383808284378201915050505050509192919290803590602001908201803590602001908080601f016020809104026020016040519081016040528093929190818152602001838380828437820191505050505050919291929050505061098f565b005b34801561026e57600080fd5b50610277610994565b6040518080602001828103825283818151815260200191508051906020019080838360005b838110156102b757808201518184015260208101905061029c565b50505050905090810190601f1680156102e45780820380516001836020036101000a031916815260200191505b509250505060405180910390f35b3480156102fe57600080fd5b50610307610a32565b6040518080602001828103825283818151815260200191508051906020019080838360005b8381101561034757808201518184015260208101905061032c565b50505050905090810190601f1680156103745780820380516001836020036101000a031916815260200191505b509250505060405180910390f35b34801561038e57600080fd5b50610397610ad0565b6040518080602001828103825283818151815260200191508051906020019080838360005b838110156103d75780820151818401526020810190506103bc565b50505050905090810190601f1680156104045780820380516001836020036101000a031916815260200191505b509250505060405180910390f35b34801561041e57600080fd5b50610427610b6e565b6040518080602001828103825283818151815260200191508051906020019080838360005b8381101561046757808201518184015260208101905061044c565b50505050905090810190601f1680156104945780820380516001836020036101000a031916815260200191505b509250505060405180910390f35b610526600480360381019080803590602001908201803590602001908080601f0160208091040260200160405190810160405280939291908181526020018383808284378201915050505050509192919290803573ffffffffffffffffffffffffffffffffffffffff16906020019092919080359060200190929190505050610c0c565b005b34801561053457600080fd5b5061053d610c2a565b6040518080602001828103825283818151815260200191508051906020019080838360005b8381101561057d578082015181840152602081019050610562565b50505050905090810190601f1680156105aa5780820380516001836020036101000a031916815260200191505b509250505060405180910390f35b60008060006105c5610cc8565b73ffffffffffffffffffffffffffffffffffffffff163373ffffffffffffffffffffffffffffffffffffffff161415156105fe57600080fd5b60006005600087600019166000191681526020019081526020016000206001015411151561062b57600080fd5b60056000866000191660001916815260200190815260200160002060000160009054906101000a900460ff16925060056000866000191660001916815260200190815260200160002060000160019054906101000a900473ffffffffffffffffffffffffffffffffffffffff169150600560008660001916600019168152602001908152602001600020600101549050600060018111156106c857fe5b8360018111156106d457fe5b1415610786577f299ff6068196c79422858ac98ce04df48d77bee84fb46b16b7346f09406fa3b6846040518080602001828103825283818151815260200191508051906020019080838360005b8381101561073c578082015181840152602081019050610721565b50505050905090810190601f1680156107695780820380516001836020036101000a031916815260200191505b509250505060405180910390a1610781848383611026565b610889565b60018081111561079257fe5b83600181111561079e57fe5b1415610888577f761c838995705bea17ca5273c12651ec3ea40f966fb5797600cce7d67e2ffd53846040518080602001828103825283818151815260200191508051906020019080838360005b838110156108065780820151818401526020810190506107eb565b50505050905090810190601f1680156108335780820380516001836020036101000a031916815260200191505b509250505060405180910390a18173ffffffffffffffffffffffffffffffffffffffff166108fc829081150290604051600060405180830381858888f19350505050158015610886573d6000803e3d6000fd5b505b5b600560008660001916600019168152602001908152602001600020600080820160006101000a81549060ff02191690556000820160016101000a81549073ffffffffffffffffffffffffffffffffffffffff0219169055600182016000905550505050505050565b600b8054600181600116156101000203166002900480601f0160208091040260200160405190810160405280929190818152602001828054600181600116156101000203166002900480156109875780601f1061095c57610100808354040283529160200191610987565b820191906000526020600020905b81548152906001019060200180831161096a57829003601f168201915b505050505081565b505050565b600a8054600181600116156101000203166002900480601f016020809104026020016040519081016040528092919081815260200182805460018160011615610100020316600290048015610a2a5780601f106109ff57610100808354040283529160200191610a2a565b820191906000526020600020905b815481529060010190602001808311610a0d57829003601f168201915b505050505081565b60078054600181600116156101000203166002900480601f016020809104026020016040519081016040528092919081815260200182805460018160011615610100020316600290048015610ac85780601f10610a9d57610100808354040283529160200191610ac8565b820191906000526020600020905b815481529060010190602001808311610aab57829003601f168201915b505050505081565b60088054600181600116156101000203166002900480601f016020809104026020016040519081016040528092919081815260200182805460018160011615610100020316600290048015610b665780601f10610b3b57610100808354040283529160200191610b66565b820191906000526020600020905b815481529060010190602001808311610b4957829003601f168201915b505050505081565b60068054600181600116156101000203166002900480601f016020809104026020016040519081016040528092919081815260200182805460018160011615610100020316600290048015610c045780601f10610bd957610100808354040283529160200191610c04565b820191906000526020600020905b815481529060010190602001808311610be757829003601f168201915b505050505081565b3481101515610c1a57600080fd5b610c2583838361145a565b505050565b60098054600181600116156101000203166002900480601f016020809104026020016040519081016040528092919081815260200182805460018160011615610100020316600290048015610cc05780601f10610c9557610100808354040283529160200191610cc0565b820191906000526020600020905b815481529060010190602001808311610ca357829003601f168201915b505050505081565b6000806000809054906101000a900473ffffffffffffffffffffffffffffffffffffffff1673ffffffffffffffffffffffffffffffffffffffff161480610d3857506000610d366000809054906101000a900473ffffffffffffffffffffffffffffffffffffffff1661188f565b145b15610d4957610d47600061189a565b505b6000809054906101000a900473ffffffffffffffffffffffffffffffffffffffff1673ffffffffffffffffffffffffffffffffffffffff166338cc48316040518163ffffffff167c0100000000000000000000000000000000000000000000000000000000028152600401602060405180830381600087803b158015610dce57600080fd5b505af1158015610de2573d6000803e3d6000fd5b505050506040513d6020811015610df857600080fd5b810190808051906020019092919050505073ffffffffffffffffffffffffffffffffffffffff16600160009054906101000a900473ffffffffffffffffffffffffffffffffffffffff1673ffffffffffffffffffffffffffffffffffffffff16141515610f60576000809054906101000a900473ffffffffffffffffffffffffffffffffffffffff1673ffffffffffffffffffffffffffffffffffffffff166338cc48316040518163ffffffff167c0100000000000000000000000000000000000000000000000000000000028152600401602060405180830381600087803b158015610ee457600080fd5b505af1158015610ef8573d6000803e3d6000fd5b505050506040513d6020811015610f0e57600080fd5b8101908080519060200190929190505050600160006101000a81548173ffffffffffffffffffffffffffffffffffffffff021916908373ffffffffffffffffffffffffffffffffffffffff1602179055505b600160009054906101000a900473ffffffffffffffffffffffffffffffffffffffff1673ffffffffffffffffffffffffffffffffffffffff1663c281d19e6040518163ffffffff167c0100000000000000000000000000000000000000000000000000000000028152600401602060405180830381600087803b158015610fe657600080fd5b505af1158015610ffa573d6000803e3d6000fd5b505050506040513d602081101561101057600080fd5b8101908080519060200190929190505050905090565b6060600061129f60078054600181600116156101000203166002900480601f0160208091040260200160405190810160405280929190818152602001828054600181600116156101000203166002900480156110c35780601f10611098576101008083540402835291602001916110c3565b820191906000526020600020905b8154815290600101906020018083116110a657829003601f168201915b505050505060068054600181600116156101000203166002900480601f01602080910402602001604051908101604052809291908181526020018280546001816001161561010002031660029004801561115e5780601f106111335761010080835404028352916020019161115e565b820191906000526020600020905b81548152906001019060200180831161114157829003601f168201915b5050505050600a8054600181600116156101000203166002900480601f0160208091040260200160405190810160405280929190818152602001828054600181600116156101000203166002900480156111f95780601f106111ce576101008083540402835291602001916111f9565b820191906000526020600020905b8154815290600101906020018083116111dc57829003601f168201915b505050505088600b8054600181600116156101000203166002900480601f0160208091040260200160405190810160405280929190818152602001828054600181600116156101000203166002900480156112955780601f1061126a57610100808354040283529160200191611295565b820191906000526020600020905b81548152906001019060200180831161127857829003601f168201915b50505050506118ab565b91507f461b3b681825006ada29bd6caaee9d539c9ab4db6ec0fc83e1cffca16f4382a7826040518080602001828103825283818151815260200191508051906020019080838360005b838110156113035780820151818401526020810190506112e8565b50505050905090810190601f1680156113305780820380516001836020036101000a031916815260200191505b509250505060405180910390a161137c6040805190810160405280600381526020017f55524c000000000000000000000000000000000000000000000000000000000081525083611cc0565b905060606040519081016040528060018081111561139657fe5b81526020018573ffffffffffffffffffffffffffffffffffffffff1681526020018481525060056000836000191660001916815260200190815260200160002060008201518160000160006101000a81548160ff021916908360018111156113fa57fe5b021790555060208201518160000160016101000a81548173ffffffffffffffffffffffffffffffffffffffff021916908373ffffffffffffffffffffffffffffffffffffffff160217905550604082015181600101559050505050505050565b606060006116d360078054600181600116156101000203166002900480601f0160208091040260200160405190810160405280929190818152602001828054600181600116156101000203166002900480156114f75780601f106114cc576101008083540402835291602001916114f7565b820191906000526020600020905b8154815290600101906020018083116114da57829003601f168201915b505050505060068054600181600116156101000203166002900480601f0160208091040260200160405190810160405280929190818152602001828054600181600116156101000203166002900480156115925780601f1061156757610100808354040283529160200191611592565b820191906000526020600020905b81548152906001019060200180831161157557829003601f168201915b505050505060088054600181600116156101000203166002900480601f01602080910402602001604051908101604052809291908181526020018280546001816001161561010002031660029004801561162d5780601f106116025761010080835404028352916020019161162d565b820191906000526020600020905b81548152906001019060200180831161161057829003601f168201915b50505050508860098054600181600116156101000203166002900480601f0160208091040260200160405190810160405280929190818152602001828054600181600116156101000203166002900480156116c95780601f1061169e576101008083540402835291602001916116c9565b820191906000526020600020905b8154815290600101906020018083116116ac57829003601f168201915b50505050506118ab565b91507f3800ffebc0007e4eabeaa7ab0e33d603fbe8966649bee3689f4945535da83c0d826040518080602001828103825283818151815260200191508051906020019080838360005b8381101561173757808201518184015260208101905061171c565b50505050905090810190601f1680156117645780820380516001836020036101000a031916815260200191505b509250505060405180910390a16117b06040805190810160405280600381526020017f55524c000000000000000000000000000000000000000000000000000000000081525083611cc0565b9050606060405190810160405280600060018111156117cb57fe5b81526020018573ffffffffffffffffffffffffffffffffffffffff1681526020018481525060056000836000191660001916815260200190815260200160002060008201518160000160006101000a81548160ff0219169083600181111561182f57fe5b021790555060208201518160000160016101000a81548173ffffffffffffffffffffffffffffffffffffffff021916908373ffffffffffffffffffffffffffffffffffffffff160217905550604082015181600101559050505050505050565b6000813b9050919050565b60006118a4612262565b9050919050565b6060806060806060806060806000808e98508d97508c96508b95508a94508451865188518a518c51010101016040519080825280601f01601f1916602001820160405280156119095781602001602082028038833980820191505090505b50935083925060009150600090505b88518110156119cb57888181518110151561192f57fe5b9060200101517f010000000000000000000000000000000000000000000000000000000000000090047f010000000000000000000000000000000000000000000000000000000000000002838380600101945081518110151561198e57fe5b9060200101907effffffffffffffffffffffffffffffffffffffffffffffffffffffffffffff1916908160001a9053508080600101915050611918565b600090505b8751811015611a835787818151811015156119e757fe5b9060200101517f010000000000000000000000000000000000000000000000000000000000000090047f0100000000000000000000000000000000000000000000000000000000000000028383806001019450815181101515611a4657fe5b9060200101907effffffffffffffffffffffffffffffffffffffffffffffffffffffffffffff1916908160001a90535080806001019150506119d0565b600090505b8651811015611b3b578681815181101515611a9f57fe5b9060200101517f010000000000000000000000000000000000000000000000000000000000000090047f0100000000000000000000000000000000000000000000000000000000000000028383806001019450815181101515611afe57fe5b9060200101907effffffffffffffffffffffffffffffffffffffffffffffffffffffffffffff1916908160001a9053508080600101915050611a88565b600090505b8551811015611bf3578581815181101515611b5757fe5b9060200101517f010000000000000000000000000000000000000000000000000000000000000090047f0100000000000000000000000000000000000000000000000000000000000000028383806001019450815181101515611bb657fe5b9060200101907effffffffffffffffffffffffffffffffffffffffffffffffffffffffffffff1916908160001a9053508080600101915050611b40565b600090505b8451811015611cab578481815181101515611c0f57fe5b9060200101517f010000000000000000000000000000000000000000000000000000000000000090047f0100000000000000000000000000000000000000000000000000000000000000028383806001019450815181101515611c6e57fe5b9060200101907effffffffffffffffffffffffffffffffffffffffffffffffffffffffffffff1916908160001a9053508080600101915050611bf8565b82995050505050505050505095945050505050565b60008060008060009054906101000a900473ffffffffffffffffffffffffffffffffffffffff1673ffffffffffffffffffffffffffffffffffffffff161480611d3257506000611d306000809054906101000a900473ffffffffffffffffffffffffffffffffffffffff1661188f565b145b15611d4357611d41600061189a565b505b6000809054906101000a900473ffffffffffffffffffffffffffffffffffffffff1673ffffffffffffffffffffffffffffffffffffffff166338cc48316040518163ffffffff167c0100000000000000000000000000000000000000000000000000000000028152600401602060405180830381600087803b158015611dc857600080fd5b505af1158015611ddc573d6000803e3d6000fd5b505050506040513d6020811015611df257600080fd5b810190808051906020019092919050505073ffffffffffffffffffffffffffffffffffffffff16600160009054906101000a900473ffffffffffffffffffffffffffffffffffffffff1673ffffffffffffffffffffffffffffffffffffffff16141515611f5a576000809054906101000a900473ffffffffffffffffffffffffffffffffffffffff1673ffffffffffffffffffffffffffffffffffffffff166338cc48316040518163ffffffff167c0100000000000000000000000000000000000000000000000000000000028152600401602060405180830381600087803b158015611ede57600080fd5b505af1158015611ef2573d6000803e3d6000fd5b505050506040513d6020811015611f0857600080fd5b8101908080519060200190929190505050600160006101000a81548173ffffffffffffffffffffffffffffffffffffffff021916908373ffffffffffffffffffffffffffffffffffffffff1602179055505b600160009054906101000a900473ffffffffffffffffffffffffffffffffffffffff1673ffffffffffffffffffffffffffffffffffffffff1663524f3889856040518263ffffffff167c01000000000000000000000000000000000000000000000000000000000281526004018080602001828103825283818151815260200191508051906020019080838360005b83811015612004578082015181840152602081019050611fe9565b50505050905090810190601f1680156120315780820380516001836020036101000a031916815260200191505b5092505050602060405180830381600087803b15801561205057600080fd5b505af1158015612064573d6000803e3d6000fd5b505050506040513d602081101561207a57600080fd5b8101908080519060200190929190505050905062030d403a02670de0b6b3a7640000018111156120b0576000600102915061225b565b600160009054906101000a900473ffffffffffffffffffffffffffffffffffffffff1673ffffffffffffffffffffffffffffffffffffffff1663adf59f9982600087876040518563ffffffff167c0100000000000000000000000000000000000000000000000000000000028152600401808481526020018060200180602001838103835285818151815260200191508051906020019080838360005b8381101561216857808201518184015260208101905061214d565b50505050905090810190601f1680156121955780820380516001836020036101000a031916815260200191505b50838103825284818151815260200191508051906020019080838360005b838110156121ce5780820151818401526020810190506121b3565b50505050905090810190601f1680156121fb5780820380516001836020036101000a031916815260200191505b50955050505050506020604051808303818588803b15801561221c57600080fd5b505af1158015612230573d6000803e3d6000fd5b50505050506040513d602081101561224757600080fd5b810190808051906020019092919050505091505b5092915050565b600080612282731d3b2638a7cc9f2cb3d298a3da7a90b67e5506ed61188f565b111561232357731d3b2638a7cc9f2cb3d298a3da7a90b67e5506ed6000806101000a81548173ffffffffffffffffffffffffffffffffffffffff021916908373ffffffffffffffffffffffffffffffffffffffff16021790555061231a6040805190810160405280600b81526020017f6574685f6d61696e6e65740000000000000000000000000000000000000000008152506126f1565b600190506126ee565b600061234273c03a2615d5efaf5f49f60b7bb6583eaec212fdf161188f565b11156123e35773c03a2615d5efaf5f49f60b7bb6583eaec212fdf16000806101000a81548173ffffffffffffffffffffffffffffffffffffffff021916908373ffffffffffffffffffffffffffffffffffffffff1602179055506123da6040805190810160405280600c81526020017f6574685f726f707374656e3300000000000000000000000000000000000000008152506126f1565b600190506126ee565b600061240273b7a07bcf2ba2f2703b24c0691b5278999c59ac7e61188f565b11156124a35773b7a07bcf2ba2f2703b24c0691b5278999c59ac7e6000806101000a81548173ffffffffffffffffffffffffffffffffffffffff021916908373ffffffffffffffffffffffffffffffffffffffff16021790555061249a6040805190810160405280600981526020017f6574685f6b6f76616e00000000000000000000000000000000000000000000008152506126f1565b600190506126ee565b60006124c273146500cfd35b22e4a392fe0adc06de1a1368ed4861188f565b11156125635773146500cfd35b22e4a392fe0adc06de1a1368ed486000806101000a81548173ffffffffffffffffffffffffffffffffffffffff021916908373ffffffffffffffffffffffffffffffffffffffff16021790555061255a6040805190810160405280600b81526020017f6574685f72696e6b6562790000000000000000000000000000000000000000008152506126f1565b600190506126ee565b6000612582736f485c8bf6fc43ea212e93bbf8ce046c7f1cb47561188f565b11156125e557736f485c8bf6fc43ea212e93bbf8ce046c7f1cb4756000806101000a81548173ffffffffffffffffffffffffffffffffffffffff021916908373ffffffffffffffffffffffffffffffffffffffff160217905550600190506126ee565b60006126047320e12a1f859b3feae5fb2a0a32c18f5a65555bbf61188f565b1115612667577320e12a1f859b3feae5fb2a0a32c18f5a65555bbf6000806101000a81548173ffffffffffffffffffffffffffffffffffffffff021916908373ffffffffffffffffffffffffffffffffffffffff160217905550600190506126ee565b60006126867351efaf4c8b3c9afbd5ab9f4bbc82784ab6ef8faa61188f565b11156126e9577351efaf4c8b3c9afbd5ab9f4bbc82784ab6ef8faa6000806101000a81548173ffffffffffffffffffffffffffffffffffffffff021916908373ffffffffffffffffffffffffffffffffffffffff160217905550600190506126ee565b600090505b90565b806002908051906020019061270792919061270b565b5050565b828054600181600116156101000203166002900490600052602060002090601f016020900481019282601f1061274c57805160ff191683800117855561277a565b8280016001018555821561277a579182015b8281111561277957825182559160200191906001019061275e565b5b509050612787919061278b565b5090565b6127ad91905b808211156127a9576000816000905550600101612791565b5090565b905600a165627a7a7230582098686db0f4ab701cffe897c39ff009a11283ffc3d3874d326cf72e850fa3be4e0029",
  "source": "pragma solidity ^0.4.23;\n\nimport \"oraclize-api/usingOraclize.sol\";\n\ncontract BdbAdapter is usingOraclize {\n\n  enum stageType {outputs, asset}\n  struct pendingOperation {\n      stageType stage;\n      address receiver;\n      uint256 amount;\n  }\n  mapping(bytes32 => pendingOperation) pendingOperations;\n\n  string public apiUrl = \"https://test.bigchaindb.com\";\n\n  string public apiStart = \"json(\";\n  string public apiOutputsEndpoint = \"/api/v1/outputs?spent=false&public_key=\";\n  string public apiOutputsClose = \").0.transaction_id\";\n  string public apiAssetEndpoint = \"/api/v1/transactions/\";\n  string public apiAssetClose = \").asset.data\";\n\n  event newAssetQuery(string assetQuery);\n  event newAssetResult(string assetResult);\n  event newOutputQuery(string outputQuery);\n  event newOutputResult(string outputResult);\n\n  // Receive payment\n  function sendPayment(string _bigchaindbOwner, address _receiver, uint256 _amount) payable public {\n    require(_amount < msg.value); // check msg.amount (needs to include payment + oracle gas)\n    outputs(_bigchaindbOwner, _receiver, _amount);\n  }\n\n  // Query from outputs\n  function outputs(string _bigchaindbOwner, address _receiver, uint256 _amount) internal {\n      string memory query = strConcat(apiStart, apiUrl, apiOutputsEndpoint, _bigchaindbOwner, apiOutputsClose);\n      newAssetQuery(query);\n      bytes32 id = oraclize_query(\"URL\", query);\n      pendingOperations[id] = pendingOperation(stageType.outputs, _receiver, _amount);\n  }\n\n  // Query from asset\n  function asset(string _bdbAssetId, address _receiver, uint256 _amount) internal {\n      string memory query = strConcat(apiStart, apiUrl, apiAssetEndpoint, _bdbAssetId, apiAssetClose);\n      newOutputQuery(query);\n      bytes32 id = oraclize_query(\"URL\", query);\n      pendingOperations[id] = pendingOperation(stageType.asset, _receiver, _amount);\n  }\n\n  // Result from oraclize\n  function __callback(bytes32 id, string result) public {\n      require(msg.sender == oraclize_cbAddress());\n      require(pendingOperations[id].amount > 0);\n\n      stageType stage = pendingOperations[id].stage;\n      address receiver = pendingOperations[id].receiver;\n      uint256 amount = pendingOperations[id].amount;\n\n      if(stage == stageType.outputs){\n          newOutputResult(result);\n          asset(result, receiver, amount);\n      }else if(stage == stageType.asset){\n          newAssetResult(result);\n          receiver.transfer(amount);\n      }\n\n      delete pendingOperations[id];\n  }\n}",
  "sourcePath": "/Users/jernejpregelj/bdb-ethereum-integration/poc1/oracle/contracts/BdbAdapter.sol",
  "compiler": {
    "name": "solc",
    "version": "0.4.24+commit.e67f0147.Emscripten.clang"
  },
  "schemaVersion": "2.0.1",
  "updatedAt": "2018-09-06T15:43:14.708Z"
}