{
  "contractName": "BdbAdapter",
  "abi": [
    {
      "constant": true,
      "inputs": [],
      "name": "apiAssetClose",
      "outputs": [
        {
          "name": "",
          "type": "string"
        }
      ],
      "payable": false,
      "stateMutability": "view",
      "type": "function"
    },
    {
      "constant": true,
      "inputs": [],
      "name": "apiOutputsStart",
      "outputs": [
        {
          "name": "",
          "type": "string"
        }
      ],
      "payable": false,
      "stateMutability": "view",
      "type": "function"
    },
    {
      "constant": true,
      "inputs": [],
      "name": "apiAssetStart",
      "outputs": [
        {
          "name": "",
          "type": "string"
        }
      ],
      "payable": false,
      "stateMutability": "view",
      "type": "function"
    },
    {
      "constant": true,
      "inputs": [],
      "name": "apiOutputsClose",
      "outputs": [
        {
          "name": "",
          "type": "string"
        }
      ],
      "payable": false,
      "stateMutability": "view",
      "type": "function"
    },
    {
      "constant": false,
      "inputs": [
        {
          "name": "_receiver",
          "type": "address"
        },
        {
          "name": "_publicKey",
          "type": "string"
        }
      ],
      "name": "sendPayment",
      "outputs": [],
      "payable": true,
      "stateMutability": "payable",
      "type": "function"
    },
    {
      "constant": false,
      "inputs": [
        {
          "name": "id",
          "type": "bytes32"
        },
        {
          "name": "result",
          "type": "string"
        }
      ],
      "name": "__callback",
      "outputs": [],
      "payable": false,
      "stateMutability": "nonpayable",
      "type": "function"
    },
    {
      "constant": false,
      "inputs": [
        {
          "name": "myid",
          "type": "bytes32"
        },
        {
          "name": "result",
          "type": "string"
        },
        {
          "name": "proof",
          "type": "bytes"
        }
      ],
      "name": "__callback",
      "outputs": [],
      "payable": false,
      "stateMutability": "nonpayable",
      "type": "function"
    }
  ],
  "bytecode": "0x6080604052608060405190810160405280604781526020017f6a736f6e2868747470733a2f2f746573742e626967636861696e64622e636f6d81526020017f2f6170692f76312f6f7574707574733f7370656e743d66616c7365267075626c81526020017f69635f6b65793d00000000000000000000000000000000000000000000000000815250600690805190602001906200009e929190620001c4565b506040805190810160405280601381526020017f295b305d2e7472616e73616374696f6e5f69640000000000000000000000000081525060079080519060200190620000ec929190620001c4565b50606060405190810160405280603581526020017f6a736f6e2868747470733a2f2f746573742e626967636861696e64622e636f6d81526020017f2f6170692f76312f7472616e73616374696f6e732f00000000000000000000008152506008908051906020019062000161929190620001c4565b506040805190810160405280600c81526020017f292e61737365742e64617461000000000000000000000000000000000000000081525060099080519060200190620001af929190620001c4565b50348015620001bd57600080fd5b5062000273565b828054600181600116156101000203166002900490600052602060002090601f016020900481019282601f106200020757805160ff191683800117855562000238565b8280016001018555821562000238579182015b82811115620002375782518255916020019190600101906200021a565b5b5090506200024791906200024b565b5090565b6200027091905b808211156200026c57600081600090555060010162000252565b5090565b90565b6120ad80620002836000396000f300608060405260043610610083576000357c0100000000000000000000000000000000000000000000000000000000900463ffffffff16806327dc297e146100885780632f78076c146100ff57806338bbfa501461018f57806385d6bff11461024c578063b4a8a7be146102c8578063d25385d114610358578063e084c685146103e8575b600080fd5b34801561009457600080fd5b506100fd6004803603810190808035600019169060200190929190803590602001908201803590602001908080601f0160208091040260200160405190810160405280939291908181526020018383808284378201915050505050509192919290505050610478565b005b34801561010b57600080fd5b50610114610679565b6040518080602001828103825283818151815260200191508051906020019080838360005b83811015610154578082015181840152602081019050610139565b50505050905090810190601f1680156101815780820380516001836020036101000a031916815260200191505b509250505060405180910390f35b34801561019b57600080fd5b5061024a6004803603810190808035600019169060200190929190803590602001908201803590602001908080601f0160208091040260200160405190810160405280939291908181526020018383808284378201915050505050509192919290803590602001908201803590602001908080601f0160208091040260200160405190810160405280939291908181526020018383808284378201915050505050509192919290505050610717565b005b6102c6600480360381019080803573ffffffffffffffffffffffffffffffffffffffff169060200190929190803590602001908201803590602001908080601f016020809104026020016040519081016040528093929190818152602001838380828437820191505050505050919291929050505061071c565b005b3480156102d457600080fd5b506102dd61072b565b6040518080602001828103825283818151815260200191508051906020019080838360005b8381101561031d578082015181840152602081019050610302565b50505050905090810190601f16801561034a5780820380516001836020036101000a031916815260200191505b509250505060405180910390f35b34801561036457600080fd5b5061036d6107c9565b6040518080602001828103825283818151815260200191508051906020019080838360005b838110156103ad578082015181840152602081019050610392565b50505050905090810190601f1680156103da5780820380516001836020036101000a031916815260200191505b509250505060405180910390f35b3480156103f457600080fd5b506103fd610867565b6040518080602001828103825283818151815260200191508051906020019080838360005b8381101561043d578082015181840152602081019050610422565b50505050905090810190601f16801561046a5780820380516001836020036101000a031916815260200191505b509250505060405180910390f35b6000806000610485610905565b73ffffffffffffffffffffffffffffffffffffffff163373ffffffffffffffffffffffffffffffffffffffff161415156104be57600080fd5b6000600560008760001916600019168152602001908152602001600020600101541115156104eb57600080fd5b60056000866000191660001916815260200190815260200160002060020160009054906101000a900473ffffffffffffffffffffffffffffffffffffffff16925060056000866000191660001916815260200190815260200160002060010154915060056000866000191660001916815260200190815260200160002060000160009054906101000a900460ff1690506000600181111561058857fe5b81600181111561059457fe5b14156105aa576105a5848484610c63565b610611565b6001808111156105b657fe5b8160018111156105c257fe5b1415610610578273ffffffffffffffffffffffffffffffffffffffff166108fc839081150290604051600060405180830381858888f1935050505015801561060e573d6000803e3d6000fd5b505b5b600560008660001916600019168152602001908152602001600020600080820160006101000a81549060ff021916905560018201600090556002820160006101000a81549073ffffffffffffffffffffffffffffffffffffffff021916905550505050505050565b60098054600181600116156101000203166002900480601f01602080910402602001604051908101604052809291908181526020018280546001816001161561010002031660029004801561070f5780601f106106e45761010080835404028352916020019161070f565b820191906000526020600020905b8154815290600101906020018083116106f257829003601f168201915b505050505081565b505050565b610727818334610ec5565b5050565b60068054600181600116156101000203166002900480601f0160208091040260200160405190810160405280929190818152602001828054600181600116156101000203166002900480156107c15780601f10610796576101008083540402835291602001916107c1565b820191906000526020600020905b8154815290600101906020018083116107a457829003601f168201915b505050505081565b60088054600181600116156101000203166002900480601f01602080910402602001604051908101604052809291908181526020018280546001816001161561010002031660029004801561085f5780601f106108345761010080835404028352916020019161085f565b820191906000526020600020905b81548152906001019060200180831161084257829003601f168201915b505050505081565b60078054600181600116156101000203166002900480601f0160208091040260200160405190810160405280929190818152602001828054600181600116156101000203166002900480156108fd5780601f106108d2576101008083540402835291602001916108fd565b820191906000526020600020905b8154815290600101906020018083116108e057829003601f168201915b505050505081565b6000806000809054906101000a900473ffffffffffffffffffffffffffffffffffffffff1673ffffffffffffffffffffffffffffffffffffffff161480610975575060006109736000809054906101000a900473ffffffffffffffffffffffffffffffffffffffff16611128565b145b15610986576109846000611133565b505b6000809054906101000a900473ffffffffffffffffffffffffffffffffffffffff1673ffffffffffffffffffffffffffffffffffffffff166338cc48316040518163ffffffff167c0100000000000000000000000000000000000000000000000000000000028152600401602060405180830381600087803b158015610a0b57600080fd5b505af1158015610a1f573d6000803e3d6000fd5b505050506040513d6020811015610a3557600080fd5b810190808051906020019092919050505073ffffffffffffffffffffffffffffffffffffffff16600160009054906101000a900473ffffffffffffffffffffffffffffffffffffffff1673ffffffffffffffffffffffffffffffffffffffff16141515610b9d576000809054906101000a900473ffffffffffffffffffffffffffffffffffffffff1673ffffffffffffffffffffffffffffffffffffffff166338cc48316040518163ffffffff167c0100000000000000000000000000000000000000000000000000000000028152600401602060405180830381600087803b158015610b2157600080fd5b505af1158015610b35573d6000803e3d6000fd5b505050506040513d6020811015610b4b57600080fd5b8101908080519060200190929190505050600160006101000a81548173ffffffffffffffffffffffffffffffffffffffff021916908373ffffffffffffffffffffffffffffffffffffffff1602179055505b600160009054906101000a900473ffffffffffffffffffffffffffffffffffffffff1673ffffffffffffffffffffffffffffffffffffffff1663c281d19e6040518163ffffffff167c0100000000000000000000000000000000000000000000000000000000028152600401602060405180830381600087803b158015610c2357600080fd5b505af1158015610c37573d6000803e3d6000fd5b505050506040513d6020811015610c4d57600080fd5b8101908080519060200190929190505050905090565b60606000610da660088054600181600116156101000203166002900480601f016020809104026020016040519081016040528092919081815260200182805460018160011615610100020316600290048015610d005780601f10610cd557610100808354040283529160200191610d00565b820191906000526020600020905b815481529060010190602001808311610ce357829003601f168201915b50505050508660098054600181600116156101000203166002900480601f016020809104026020016040519081016040528092919081815260200182805460018160011615610100020316600290048015610d9c5780601f10610d7157610100808354040283529160200191610d9c565b820191906000526020600020905b815481529060010190602001808311610d7f57829003601f168201915b5050505050611144565b9150610de76040805190810160405280600381526020017f55524c00000000000000000000000000000000000000000000000000000000008152508361117c565b9050606060405190810160405280600180811115610e0157fe5b81526020018481526020018573ffffffffffffffffffffffffffffffffffffffff1681525060056000836000191660001916815260200190815260200160002060008201518160000160006101000a81548160ff02191690836001811115610e6557fe5b02179055506020820151816001015560408201518160020160006101000a81548173ffffffffffffffffffffffffffffffffffffffff021916908373ffffffffffffffffffffffffffffffffffffffff1602179055509050505050505050565b6060600061100860068054600181600116156101000203166002900480601f016020809104026020016040519081016040528092919081815260200182805460018160011615610100020316600290048015610f625780601f10610f3757610100808354040283529160200191610f62565b820191906000526020600020905b815481529060010190602001808311610f4557829003601f168201915b50505050508660078054600181600116156101000203166002900480601f016020809104026020016040519081016040528092919081815260200182805460018160011615610100020316600290048015610ffe5780601f10610fd357610100808354040283529160200191610ffe565b820191906000526020600020905b815481529060010190602001808311610fe157829003601f168201915b5050505050611144565b91506110496040805190810160405280600381526020017f55524c00000000000000000000000000000000000000000000000000000000008152508361117c565b90506060604051908101604052806000600181111561106457fe5b81526020018481526020018573ffffffffffffffffffffffffffffffffffffffff1681525060056000836000191660001916815260200190815260200160002060008201518160000160006101000a81548160ff021916908360018111156110c857fe5b02179055506020820151816001015560408201518160020160006101000a81548173ffffffffffffffffffffffffffffffffffffffff021916908373ffffffffffffffffffffffffffffffffffffffff1602179055509050505050505050565b6000813b9050919050565b600061113d61171e565b9050919050565b606061117384848460206040519081016040528060008152506020604051908101604052806000815250611bad565b90509392505050565b60008060008060009054906101000a900473ffffffffffffffffffffffffffffffffffffffff1673ffffffffffffffffffffffffffffffffffffffff1614806111ee575060006111ec6000809054906101000a900473ffffffffffffffffffffffffffffffffffffffff16611128565b145b156111ff576111fd6000611133565b505b6000809054906101000a900473ffffffffffffffffffffffffffffffffffffffff1673ffffffffffffffffffffffffffffffffffffffff166338cc48316040518163ffffffff167c0100000000000000000000000000000000000000000000000000000000028152600401602060405180830381600087803b15801561128457600080fd5b505af1158015611298573d6000803e3d6000fd5b505050506040513d60208110156112ae57600080fd5b810190808051906020019092919050505073ffffffffffffffffffffffffffffffffffffffff16600160009054906101000a900473ffffffffffffffffffffffffffffffffffffffff1673ffffffffffffffffffffffffffffffffffffffff16141515611416576000809054906101000a900473ffffffffffffffffffffffffffffffffffffffff1673ffffffffffffffffffffffffffffffffffffffff166338cc48316040518163ffffffff167c0100000000000000000000000000000000000000000000000000000000028152600401602060405180830381600087803b15801561139a57600080fd5b505af11580156113ae573d6000803e3d6000fd5b505050506040513d60208110156113c457600080fd5b8101908080519060200190929190505050600160006101000a81548173ffffffffffffffffffffffffffffffffffffffff021916908373ffffffffffffffffffffffffffffffffffffffff1602179055505b600160009054906101000a900473ffffffffffffffffffffffffffffffffffffffff1673ffffffffffffffffffffffffffffffffffffffff1663524f3889856040518263ffffffff167c01000000000000000000000000000000000000000000000000000000000281526004018080602001828103825283818151815260200191508051906020019080838360005b838110156114c05780820151818401526020810190506114a5565b50505050905090810190601f1680156114ed5780820380516001836020036101000a031916815260200191505b5092505050602060405180830381600087803b15801561150c57600080fd5b505af1158015611520573d6000803e3d6000fd5b505050506040513d602081101561153657600080fd5b8101908080519060200190929190505050905062030d403a02670de0b6b3a76400000181111561156c5760006001029150611717565b600160009054906101000a900473ffffffffffffffffffffffffffffffffffffffff1673ffffffffffffffffffffffffffffffffffffffff1663adf59f9982600087876040518563ffffffff167c0100000000000000000000000000000000000000000000000000000000028152600401808481526020018060200180602001838103835285818151815260200191508051906020019080838360005b83811015611624578082015181840152602081019050611609565b50505050905090810190601f1680156116515780820380516001836020036101000a031916815260200191505b50838103825284818151815260200191508051906020019080838360005b8381101561168a57808201518184015260208101905061166f565b50505050905090810190601f1680156116b75780820380516001836020036101000a031916815260200191505b50955050505050506020604051808303818588803b1580156116d857600080fd5b505af11580156116ec573d6000803e3d6000fd5b50505050506040513d602081101561170357600080fd5b810190808051906020019092919050505091505b5092915050565b60008061173e731d3b2638a7cc9f2cb3d298a3da7a90b67e5506ed611128565b11156117df57731d3b2638a7cc9f2cb3d298a3da7a90b67e5506ed6000806101000a81548173ffffffffffffffffffffffffffffffffffffffff021916908373ffffffffffffffffffffffffffffffffffffffff1602179055506117d66040805190810160405280600b81526020017f6574685f6d61696e6e6574000000000000000000000000000000000000000000815250611fc2565b60019050611baa565b60006117fe73c03a2615d5efaf5f49f60b7bb6583eaec212fdf1611128565b111561189f5773c03a2615d5efaf5f49f60b7bb6583eaec212fdf16000806101000a81548173ffffffffffffffffffffffffffffffffffffffff021916908373ffffffffffffffffffffffffffffffffffffffff1602179055506118966040805190810160405280600c81526020017f6574685f726f707374656e330000000000000000000000000000000000000000815250611fc2565b60019050611baa565b60006118be73b7a07bcf2ba2f2703b24c0691b5278999c59ac7e611128565b111561195f5773b7a07bcf2ba2f2703b24c0691b5278999c59ac7e6000806101000a81548173ffffffffffffffffffffffffffffffffffffffff021916908373ffffffffffffffffffffffffffffffffffffffff1602179055506119566040805190810160405280600981526020017f6574685f6b6f76616e0000000000000000000000000000000000000000000000815250611fc2565b60019050611baa565b600061197e73146500cfd35b22e4a392fe0adc06de1a1368ed48611128565b1115611a1f5773146500cfd35b22e4a392fe0adc06de1a1368ed486000806101000a81548173ffffffffffffffffffffffffffffffffffffffff021916908373ffffffffffffffffffffffffffffffffffffffff160217905550611a166040805190810160405280600b81526020017f6574685f72696e6b656279000000000000000000000000000000000000000000815250611fc2565b60019050611baa565b6000611a3e736f485c8bf6fc43ea212e93bbf8ce046c7f1cb475611128565b1115611aa157736f485c8bf6fc43ea212e93bbf8ce046c7f1cb4756000806101000a81548173ffffffffffffffffffffffffffffffffffffffff021916908373ffffffffffffffffffffffffffffffffffffffff16021790555060019050611baa565b6000611ac07320e12a1f859b3feae5fb2a0a32c18f5a65555bbf611128565b1115611b23577320e12a1f859b3feae5fb2a0a32c18f5a65555bbf6000806101000a81548173ffffffffffffffffffffffffffffffffffffffff021916908373ffffffffffffffffffffffffffffffffffffffff16021790555060019050611baa565b6000611b427351efaf4c8b3c9afbd5ab9f4bbc82784ab6ef8faa611128565b1115611ba5577351efaf4c8b3c9afbd5ab9f4bbc82784ab6ef8faa6000806101000a81548173ffffffffffffffffffffffffffffffffffffffff021916908373ffffffffffffffffffffffffffffffffffffffff16021790555060019050611baa565b600090505b90565b6060806060806060806060806000808e98508d97508c96508b95508a94508451865188518a518c51010101016040519080825280601f01601f191660200182016040528015611c0b5781602001602082028038833980820191505090505b50935083925060009150600090505b8851811015611ccd578881815181101515611c3157fe5b9060200101517f010000000000000000000000000000000000000000000000000000000000000090047f0100000000000000000000000000000000000000000000000000000000000000028383806001019450815181101515611c9057fe5b9060200101907effffffffffffffffffffffffffffffffffffffffffffffffffffffffffffff1916908160001a9053508080600101915050611c1a565b600090505b8751811015611d85578781815181101515611ce957fe5b9060200101517f010000000000000000000000000000000000000000000000000000000000000090047f0100000000000000000000000000000000000000000000000000000000000000028383806001019450815181101515611d4857fe5b9060200101907effffffffffffffffffffffffffffffffffffffffffffffffffffffffffffff1916908160001a9053508080600101915050611cd2565b600090505b8651811015611e3d578681815181101515611da157fe5b9060200101517f010000000000000000000000000000000000000000000000000000000000000090047f0100000000000000000000000000000000000000000000000000000000000000028383806001019450815181101515611e0057fe5b9060200101907effffffffffffffffffffffffffffffffffffffffffffffffffffffffffffff1916908160001a9053508080600101915050611d8a565b600090505b8551811015611ef5578581815181101515611e5957fe5b9060200101517f010000000000000000000000000000000000000000000000000000000000000090047f0100000000000000000000000000000000000000000000000000000000000000028383806001019450815181101515611eb857fe5b9060200101907effffffffffffffffffffffffffffffffffffffffffffffffffffffffffffff1916908160001a9053508080600101915050611e42565b600090505b8451811015611fad578481815181101515611f1157fe5b9060200101517f010000000000000000000000000000000000000000000000000000000000000090047f0100000000000000000000000000000000000000000000000000000000000000028383806001019450815181101515611f7057fe5b9060200101907effffffffffffffffffffffffffffffffffffffffffffffffffffffffffffff1916908160001a9053508080600101915050611efa565b82995050505050505050505095945050505050565b8060029080519060200190611fd8929190611fdc565b5050565b828054600181600116156101000203166002900490600052602060002090601f016020900481019282601f1061201d57805160ff191683800117855561204b565b8280016001018555821561204b579182015b8281111561204a57825182559160200191906001019061202f565b5b509050612058919061205c565b5090565b61207e91905b8082111561207a576000816000905550600101612062565b5090565b905600a165627a7a72305820615080c2064096f544a693cbbe0088f1c8adf0413b0a2d910a6a1379e5ab508e0029",
  "source": "pragma solidity ^0.4.23;\n\nimport \"oraclize-api/usingOraclize.sol\";\n\ncontract BdbAdapter is usingOraclize {\n\n  enum stageType {outputs, asset}\n  struct pendingOperation {\n      stageType stage;\n      uint256 amount;\n      address receiver;\n  }\n  mapping(bytes32 => pendingOperation) pendingOperations;\n\n  string public apiOutputsStart = \"json(https://test.bigchaindb.com/api/v1/outputs?spent=false&public_key=\";\n  string public apiOutputsClose = \")[0].transaction_id\";\n  string public apiAssetStart = \"json(https://test.bigchaindb.com/api/v1/transactions/\";\n  string public apiAssetClose = \").asset.data\";\n\n  // Receive payment\n  function sendPayment(address _receiver, string _publicKey) payable public {\n    outputs(_publicKey, _receiver, msg.value);\n  }\n\n  // Query from outputs\n  function outputs(string _publicKey, address _receiver, uint256 _amount) internal {\n      string memory query = strConcat(apiOutputsStart, _publicKey, apiOutputsClose);\n      bytes32 id = oraclize_query(\"URL\", query);\n      pendingOperations[id] = pendingOperation(stageType.outputs, _amount, _receiver);\n  }\n\n  // Query from asset\n  function asset(string _txId, address _receiver, uint256 _amount) internal {\n      string memory query = strConcat(apiAssetStart, _txId, apiAssetClose);\n      bytes32 id = oraclize_query(\"URL\", query);\n      pendingOperations[id] = pendingOperation(stageType.asset, _amount, _receiver);\n  }\n\n  // Result from oraclize\n  function __callback(bytes32 id, string result) public {\n      require(msg.sender == oraclize_cbAddress());\n      require(pendingOperations[id].amount > 0);\n\n      address receiver = pendingOperations[id].receiver;\n      uint256 amount = pendingOperations[id].amount;\n      stageType stage = pendingOperations[id].stage;\n\n      if(stage == stageType.outputs){\n          asset(result, receiver, amount);\n      }else if(stage == stageType.asset){\n          receiver.transfer(amount);\n      }\n\n      delete pendingOperations[id];\n  }\n}",
  "sourcePath": "/Users/jernejpregelj/bdb-ethereum-integration/poc1/oracle/contracts/BdbAdapter.sol",
  "compiler": {
    "name": "solc",
    "version": "0.4.24+commit.e67f0147.Emscripten.clang"
  },
  "schemaVersion": "2.0.1",
  "updatedAt": "2018-09-06T13:17:14.242Z"
}